{
  "contractName": "Files",
  "abi": [
    {
      "inputs": [],
      "payable": false,
      "stateMutability": "nonpayable",
      "type": "constructor"
    },
    {
      "anonymous": false,
      "inputs": [
        {
          "indexed": false,
          "internalType": "address",
          "name": "viewer",
          "type": "address"
        }
      ],
      "name": "Viewed",
      "type": "event"
    },
    {
      "constant": true,
      "inputs": [
        {
          "internalType": "uint256",
          "name": "",
          "type": "uint256"
        }
      ],
      "name": "files",
      "outputs": [
        {
          "internalType": "uint256",
          "name": "id",
          "type": "uint256"
        },
        {
          "internalType": "string",
          "name": "name",
          "type": "string"
        },
        {
          "internalType": "string",
          "name": "contents",
          "type": "string"
        },
        {
          "internalType": "address",
          "name": "tempOwner",
          "type": "address"
        },
        {
          "internalType": "address",
          "name": "trueOwner",
          "type": "address"
        },
        {
          "internalType": "uint256",
          "name": "lendKey",
          "type": "uint256"
        },
        {
          "internalType": "uint256",
          "name": "tradeKey",
          "type": "uint256"
        },
        {
          "internalType": "uint256",
          "name": "delKey",
          "type": "uint256"
        }
      ],
      "payable": false,
      "stateMutability": "view",
      "type": "function"
    },
    {
      "constant": true,
      "inputs": [],
      "name": "id",
      "outputs": [
        {
          "internalType": "uint256",
          "name": "",
          "type": "uint256"
        }
      ],
      "payable": false,
      "stateMutability": "view",
      "type": "function"
    },
    {
      "constant": false,
      "inputs": [
        {
          "internalType": "string",
          "name": "_name",
          "type": "string"
        },
        {
          "internalType": "string",
          "name": "_contents",
          "type": "string"
        }
      ],
      "name": "addFile",
      "outputs": [],
      "payable": false,
      "stateMutability": "nonpayable",
      "type": "function"
    },
    {
      "constant": false,
      "inputs": [
        {
          "internalType": "uint256",
          "name": "an_id",
          "type": "uint256"
        }
      ],
      "name": "viewFile",
      "outputs": [
        {
          "internalType": "string",
          "name": "some_contents",
          "type": "string"
        }
      ],
      "payable": false,
      "stateMutability": "nonpayable",
      "type": "function"
    },
    {
      "constant": false,
      "inputs": [
        {
          "internalType": "uint256",
          "name": "an_id",
          "type": "uint256"
        },
        {
          "internalType": "uint256",
          "name": "a_lendKey",
          "type": "uint256"
        }
      ],
      "name": "borrowFile",
      "outputs": [],
      "payable": false,
      "stateMutability": "nonpayable",
      "type": "function"
    },
    {
      "constant": false,
      "inputs": [
        {
          "internalType": "uint256",
          "name": "an_id",
          "type": "uint256"
        },
        {
          "internalType": "uint256",
          "name": "a_tradeKey",
          "type": "uint256"
        }
      ],
      "name": "takeFile",
      "outputs": [],
      "payable": false,
      "stateMutability": "nonpayable",
      "type": "function"
    },
    {
      "constant": false,
      "inputs": [
        {
          "internalType": "uint256",
          "name": "an_id",
          "type": "uint256"
        },
        {
          "internalType": "uint256",
          "name": "a_lendKey",
          "type": "uint256"
        },
        {
          "internalType": "address",
          "name": "a_recipient",
          "type": "address"
        }
      ],
      "name": "lendFile",
      "outputs": [],
      "payable": false,
      "stateMutability": "nonpayable",
      "type": "function"
    },
    {
      "constant": false,
      "inputs": [
        {
          "internalType": "uint256",
          "name": "an_id",
          "type": "uint256"
        },
        {
          "internalType": "uint256",
          "name": "a_tradeKey",
          "type": "uint256"
        },
        {
          "internalType": "address",
          "name": "a_recipient",
          "type": "address"
        }
      ],
      "name": "giveFile",
      "outputs": [],
      "payable": false,
      "stateMutability": "nonpayable",
      "type": "function"
    },
    {
      "constant": false,
      "inputs": [
        {
          "internalType": "uint256",
          "name": "an_id",
          "type": "uint256"
        },
        {
          "internalType": "uint256",
          "name": "a_delKey",
          "type": "uint256"
        }
      ],
      "name": "deleteFile",
      "outputs": [],
      "payable": false,
      "stateMutability": "nonpayable",
      "type": "function"
    }
  ],
  "bytecode": "0x608060405260016003556002600455600360055560006006553480156200002557600080fd5b50336000806101000a81548173ffffffffffffffffffffffffffffffffffffffff021916908373ffffffffffffffffffffffffffffffffffffffff16021790555060066000815480929190600101919050555060405180610100016040528060065481526020016040518060400160405280600c81526020017f537461727465722046696c65000000000000000000000000000000000000000081525081526020016040518060400160405280601781526020017f436c617373696669656420696e666f726d6174696f6e2e00000000000000000081525081526020016000809054906101000a900473ffffffffffffffffffffffffffffffffffffffff1673ffffffffffffffffffffffffffffffffffffffff1681526020016000809054906101000a900473ffffffffffffffffffffffffffffffffffffffff1673ffffffffffffffffffffffffffffffffffffffff16815260200160035481526020016004548152602001600554815250600260006006548152602001908152602001600020600082015181600001556020820151816001019080519060200190620001cf92919062000548565b506040820151816002019080519060200190620001ee92919062000548565b5060608201518160030160006101000a81548173ffffffffffffffffffffffffffffffffffffffff021916908373ffffffffffffffffffffffffffffffffffffffff16021790555060808201518160040160006101000a81548173ffffffffffffffffffffffffffffffffffffffff021916908373ffffffffffffffffffffffffffffffffffffffff16021790555060a0820151816005015560c0820151816006015560e0820151816007015590505060036000815480929190600101919050555060046000815480929190600101919050555060056000815480929190600101919050555060066000815480929190600101919050555060405180610100016040528060065481526020016040518060400160405280600681526020017f46696c652032000000000000000000000000000000000000000000000000000081525081526020016040518060400160405280600c81526020017f4c6f72656d20697073756d2e000000000000000000000000000000000000000081525081526020016000809054906101000a900473ffffffffffffffffffffffffffffffffffffffff1673ffffffffffffffffffffffffffffffffffffffff1681526020016000809054906101000a900473ffffffffffffffffffffffffffffffffffffffff1673ffffffffffffffffffffffffffffffffffffffff168152602001600354815260200160045481526020016005548152506002600060065481526020019081526020016000206000820151816000015560208201518160010190805190602001906200043d92919062000548565b5060408201518160020190805190602001906200045c92919062000548565b5060608201518160030160006101000a81548173ffffffffffffffffffffffffffffffffffffffff021916908373ffffffffffffffffffffffffffffffffffffffff16021790555060808201518160040160006101000a81548173ffffffffffffffffffffffffffffffffffffffff021916908373ffffffffffffffffffffffffffffffffffffffff16021790555060a0820151816005015560c0820151816006015560e08201518160070155905050600360008154809291906001019190505550600460008154809291906001019190505550600560008154809291906001019190505550620005f7565b828054600181600116156101000203166002900490600052602060002090601f016020900481019282601f106200058b57805160ff1916838001178555620005bc565b82800160010185558215620005bc579182015b82811115620005bb5782518255916020019190600101906200059e565b5b509050620005cb9190620005cf565b5090565b620005f491905b80821115620005f0576000816000905550600101620005d6565b5090565b90565b61100b80620006076000396000f3fe608060405234801561001057600080fd5b50600436106100935760003560e01c8063485974d111610066578063485974d1146102b2578063af640d0f146102ea578063bbef8ae014610308578063c9e7a628146103af578063f4c714b41461040757610093565b806313a5f19b146100985780631813cc7d146100f0578063248bfc3b14610128578063446debd61461027a575b600080fd5b6100ee600480360360608110156100ae57600080fd5b810190808035906020019092919080359060200190929190803573ffffffffffffffffffffffffffffffffffffffff16906020019092919050505061059c565b005b6101266004803603604081101561010657600080fd5b810190808035906020019092919080359060200190929190505050610688565b005b6102786004803603604081101561013e57600080fd5b810190808035906020019064010000000081111561015b57600080fd5b82018360208201111561016d57600080fd5b8035906020019184600183028401116401000000008311171561018f57600080fd5b91908080601f016020809104026020016040519081016040528093929190818152602001838380828437600081840152601f19601f820116905080830192505050505050509192919290803590602001906401000000008111156101f257600080fd5b82018360208201111561020457600080fd5b8035906020019184600183028401116401000000008311171561022657600080fd5b91908080601f016020809104026020016040519081016040528093929190818152602001838380828437600081840152601f19601f8201169050808301925050505050505091929192905050506107c2565b005b6102b06004803603604081101561029057600080fd5b810190808035906020019092919080359060200190929190505050610984565b005b6102e8600480360360408110156102c857600080fd5b8101908080359060200190929190803590602001909291905050506109ff565b005b6102f2610acf565b6040518082815260200191505060405180910390f35b6103346004803603602081101561031e57600080fd5b8101908080359060200190929190505050610ad5565b6040518080602001828103825283818151815260200191508051906020019080838360005b83811015610374578082015181840152602081019050610359565b50505050905090810190601f1680156103a15780820380516001836020036101000a031916815260200191505b509250505060405180910390f35b610405600480360360608110156103c557600080fd5b810190808035906020019092919080359060200190929190803573ffffffffffffffffffffffffffffffffffffffff169060200190929190505050610bf0565b005b6104336004803603602081101561041d57600080fd5b8101908080359060200190929190505050610d31565b6040518089815260200180602001806020018873ffffffffffffffffffffffffffffffffffffffff1673ffffffffffffffffffffffffffffffffffffffff1681526020018773ffffffffffffffffffffffffffffffffffffffff1673ffffffffffffffffffffffffffffffffffffffff16815260200186815260200185815260200184815260200183810383528a818151815260200191508051906020019080838360005b838110156104f35780820151818401526020810190506104d8565b50505050905090810190601f1680156105205780820380516001836020036101000a031916815260200191505b50838103825289818151815260200191508051906020019080838360005b8381101561055957808201518184015260208101905061053e565b50505050905090810190601f1680156105865780820380516001836020036101000a031916815260200191505b509a505050505050505050505060405180910390f35b826002600082815260200190815260200160002060030160009054906101000a900473ffffffffffffffffffffffffffffffffffffffff1673ffffffffffffffffffffffffffffffffffffffff163373ffffffffffffffffffffffffffffffffffffffff161461060b57600080fd5b6002600085815260200190815260200160002060050154831461062d57600080fd5b816002600086815260200190815260200160002060030160006101000a81548173ffffffffffffffffffffffffffffffffffffffff021916908373ffffffffffffffffffffffffffffffffffffffff16021790555050505050565b816002600082815260200190815260200160002060040160009054906101000a900473ffffffffffffffffffffffffffffffffffffffff1673ffffffffffffffffffffffffffffffffffffffff163373ffffffffffffffffffffffffffffffffffffffff16146106f757600080fd5b6002600084815260200190815260200160002060070154821461071957600080fd5b600260008481526020019081526020016000206000808201600090556001820160006107459190610ee9565b6002820160006107559190610ee9565b6003820160006101000a81549073ffffffffffffffffffffffffffffffffffffffff02191690556004820160006101000a81549073ffffffffffffffffffffffffffffffffffffffff02191690556005820160009055600682016000905560078201600090555050505050565b60066000815480929190600101919050555060405180610100016040528060065481526020018381526020018281526020013373ffffffffffffffffffffffffffffffffffffffff1681526020013373ffffffffffffffffffffffffffffffffffffffff1681526020016003548152602001600454815260200160055481525060026000600654815260200190815260200160002060008201518160000155602082015181600101908051906020019061087d929190610f31565b50604082015181600201908051906020019061089a929190610f31565b5060608201518160030160006101000a81548173ffffffffffffffffffffffffffffffffffffffff021916908373ffffffffffffffffffffffffffffffffffffffff16021790555060808201518160040160006101000a81548173ffffffffffffffffffffffffffffffffffffffff021916908373ffffffffffffffffffffffffffffffffffffffff16021790555060a0820151816005015560c0820151816006015560e082015181600701559050506003600081548092919060010191905055506004600081548092919060010191905055506005600081548092919060010191905055505050565b600260008381526020019081526020016000206005015481146109a657600080fd5b336002600084815260200190815260200160002060030160006101000a81548173ffffffffffffffffffffffffffffffffffffffff021916908373ffffffffffffffffffffffffffffffffffffffff1602179055505050565b60026000838152602001908152602001600020600601548114610a2157600080fd5b336002600084815260200190815260200160002060030160006101000a81548173ffffffffffffffffffffffffffffffffffffffff021916908373ffffffffffffffffffffffffffffffffffffffff160217905550336002600084815260200190815260200160002060040160006101000a81548173ffffffffffffffffffffffffffffffffffffffff021916908373ffffffffffffffffffffffffffffffffffffffff1602179055505050565b60065481565b60607fc6973417d3492f38d7c3b6841ade7d7dc9e3995d77f0a3747d093ad2c73adee533604051808273ffffffffffffffffffffffffffffffffffffffff1673ffffffffffffffffffffffffffffffffffffffff16815260200191505060405180910390a1600260008381526020019081526020016000206002018054600181600116156101000203166002900480601f016020809104026020016040519081016040528092919081815260200182805460018160011615610100020316600290048015610be45780601f10610bb957610100808354040283529160200191610be4565b820191906000526020600020905b815481529060010190602001808311610bc757829003601f168201915b50505050509050919050565b826002600082815260200190815260200160002060040160009054906101000a900473ffffffffffffffffffffffffffffffffffffffff1673ffffffffffffffffffffffffffffffffffffffff163373ffffffffffffffffffffffffffffffffffffffff1614610c5f57600080fd5b60026000858152602001908152602001600020600601548314610c8157600080fd5b816002600086815260200190815260200160002060030160006101000a81548173ffffffffffffffffffffffffffffffffffffffff021916908373ffffffffffffffffffffffffffffffffffffffff160217905550816002600086815260200190815260200160002060040160006101000a81548173ffffffffffffffffffffffffffffffffffffffff021916908373ffffffffffffffffffffffffffffffffffffffff16021790555050505050565b6002602052806000526040600020600091509050806000015490806001018054600181600116156101000203166002900480601f016020809104026020016040519081016040528092919081815260200182805460018160011615610100020316600290048015610de35780601f10610db857610100808354040283529160200191610de3565b820191906000526020600020905b815481529060010190602001808311610dc657829003601f168201915b505050505090806002018054600181600116156101000203166002900480601f016020809104026020016040519081016040528092919081815260200182805460018160011615610100020316600290048015610e815780601f10610e5657610100808354040283529160200191610e81565b820191906000526020600020905b815481529060010190602001808311610e6457829003601f168201915b5050505050908060030160009054906101000a900473ffffffffffffffffffffffffffffffffffffffff16908060040160009054906101000a900473ffffffffffffffffffffffffffffffffffffffff16908060050154908060060154908060070154905088565b50805460018160011615610100020316600290046000825580601f10610f0f5750610f2e565b601f016020900490600052602060002090810190610f2d9190610fb1565b5b50565b828054600181600116156101000203166002900490600052602060002090601f016020900481019282601f10610f7257805160ff1916838001178555610fa0565b82800160010185558215610fa0579182015b82811115610f9f578251825591602001919060010190610f84565b5b509050610fad9190610fb1565b5090565b610fd391905b80821115610fcf576000816000905550600101610fb7565b5090565b9056fea265627a7a723158208e9e530c0e93881168513b469927662bc4497e99a8f9ecde6b84570f2f9acca464736f6c63430005100032",
  "source": "//SPDX-License-Identifier: UNLICENCED\n\npragma solidity 0.5.16;\n\ncontract Files {\n\n    address owner;\n    address recipient;\n\n    struct File {\n        uint id;\n        string name;\n        string contents;\n        address tempOwner;\n        address trueOwner;\n        uint lendKey;\n        uint tradeKey;\n        uint delKey;\n    }\n\n    mapping(uint => File) public files;\n\n    uint lk = 1;\n    uint tk = 2;\n    uint dk = 3;\n\n    uint public id = 0;\n\n    event Viewed(address viewer);\n\n    modifier onlyTempOwner (uint an_id) {\n        require(msg.sender == files[an_id].tempOwner);\n        _;\n    }\n\n    modifier onlyTrueOwner (uint an_id) {\n        require(msg.sender == files[an_id].trueOwner);\n        _;\n    }\n\n    constructor () public {\n        owner = msg.sender;\n        id++;\n        files[id] = File(id, \"Starter File\", \"Classified information.\", owner, owner, lk, tk, dk);\n        lk++;\n        tk++;\n        dk++;\n\n        id++;\n        files[id] = File(id, \"File 2\", \"Lorem ipsum.\", owner, owner, lk, tk, dk);\n        lk++;\n        tk++;\n        dk++;\n    }\n\n    function addFile (string memory _name, string memory _contents) public {\n        id++;\n        files[id] = File(id, _name, _contents, msg.sender, msg.sender, lk, tk, dk);\n        lk++;\n        tk++;\n        dk++;\n    }\n\n    function viewFile (uint an_id) public returns (string memory some_contents) {\n        // require(msg.sender == files[an_id].tempOwner || msg.sender == files[an_id].trueOwner);\n        emit Viewed(msg.sender);\n        return files[an_id].contents;\n    }\n\n    function borrowFile (uint an_id, uint a_lendKey) public {\n        require(a_lendKey == files[an_id].lendKey);\n        files[an_id].tempOwner = msg.sender;\n    }\n\n    function takeFile (uint an_id, uint a_tradeKey) public {\n        require(a_tradeKey == files[an_id].tradeKey);\n        files[an_id].tempOwner = msg.sender;\n        files[an_id].trueOwner = msg.sender;\n    }\n\n    function lendFile (uint an_id, uint a_lendKey, address a_recipient) public onlyTempOwner (an_id) {\n        require(a_lendKey == files[an_id].lendKey);\n        files[an_id].tempOwner = a_recipient;\n    }\n\n    function giveFile (uint an_id, uint a_tradeKey, address a_recipient) public onlyTrueOwner (an_id) {\n        require(a_tradeKey == files[an_id].tradeKey);\n        files[an_id].tempOwner = a_recipient;\n        files[an_id].trueOwner = a_recipient;\n    }\n\n    function deleteFile (uint an_id, uint a_delKey) public onlyTrueOwner (an_id) {\n        require(a_delKey == files[an_id].delKey);\n        delete files[an_id];\n    }\n\n}\n",
  "sourcePath": "/Users/shighton/files_dapp/contracts/Files.sol",
  "compiler": {
    "name": "solc",
    "version": "0.5.16+commit.9c3226ce.Emscripten.clang"
  },
  "schemaVersion": "3.4.16",
  "updatedAt": "2023-12-07T04:23:40.507Z",
  "networkType": "ethereum",
  "devdoc": {
    "methods": {}
  },
  "userdoc": {
    "methods": {}
  }
}